{
  "contractName": "Migrations",
  "abi": [
    {
      "inputs": [],
      "payable": false,
      "stateMutability": "nonpayable",
      "type": "constructor"
    },
    {
      "constant": true,
      "inputs": [],
      "name": "owner",
      "outputs": [
        {
          "internalType": "address",
          "name": "",
          "type": "address"
        }
      ],
      "payable": false,
      "stateMutability": "view",
      "type": "function"
    },
    {
      "constant": false,
      "inputs": [
        {
          "internalType": "uint256",
          "name": "completed",
          "type": "uint256"
        }
      ],
      "name": "setCompleted",
      "outputs": [],
      "payable": false,
      "stateMutability": "nonpayable",
      "type": "function"
    },
    {
      "constant": false,
      "inputs": [
        {
          "internalType": "address",
          "name": "new_address",
          "type": "address"
        }
      ],
      "name": "upgrade",
      "outputs": [],
      "payable": false,
      "stateMutability": "nonpayable",
      "type": "function"
    }
  ],
  "bytecode": "0x608060405234801561001057600080fd5b50600080546001600160a01b03191633179055610188806100326000396000f3fe608060405234801561001057600080fd5b50600436106100415760003560e01c80630900f010146100465780638da5cb5b1461006e578063fdacd57614610092575b600080fd5b61006c6004803603602081101561005c57600080fd5b50356001600160a01b03166100af565b005b61007661012c565b604080516001600160a01b039092168252519081900360200190f35b61006c600480360360208110156100a857600080fd5b503561013b565b6000546001600160a01b0316331415610129576000819050806001600160a01b031663fdacd5766001546040518263ffffffff1660e01b815260040180828152602001915050600060405180830381600087803b15801561010f57600080fd5b505af1158015610123573d6000803e3d6000fd5b50505050505b50565b6000546001600160a01b031681565b6000546001600160a01b03163314156101295760015556fea265627a7a7231582010bd3d59864d9206901b6a44a5953518c5edd469dc92da015d149753a32183bd64736f6c63430005110032",
  "source": "pragma solidity ^0.5.0;\r\n\r\ncontract Migrations {\r\n    address public owner;\r\n    uint last_completed_migration;\r\n\r\n    constructor() public {\r\n        owner = msg.sender;\r\n    }\r\n\r\n    modifier restricted() {\r\n        if (msg.sender == owner) _;\r\n    }\r\n\r\n    function setCompleted(uint completed) public restricted {\r\n        last_completed_migration = completed;\r\n    }\r\n\r\n    function upgrade(address new_address) public restricted {\r\n        Migrations upgraded = Migrations(new_address);\r\n        upgraded.setCompleted(last_completed_migration);\r\n\r\n    }\r\n}",
  "sourcePath": "/home/romain/WebStorm/nft_dapp/src/contracts/Migrations_.sol",
  "compiler": {
    "name": "solc",
    "version": "0.5.17+commit.d19bba13.Emscripten.clang"
  },
  "schemaVersion": "3.4.16",
  "updatedAt": "2024-11-16T09:24:59.485Z",
  "networkType": "ethereum",
  "devdoc": {
    "methods": {}
  },
  "userdoc": {
    "methods": {}
  }
}